{
  "_format": "hh-sol-artifact-1",
  "contractName": "User",
  "sourceName": "contracts/User.sol",
  "abi": [
    {
      "inputs": [
        {
          "internalType": "address",
          "name": "user",
          "type": "address"
        }
      ],
      "name": "getUser",
      "outputs": [
        {
          "internalType": "string",
          "name": "",
          "type": "string"
        }
      ],
      "stateMutability": "view",
      "type": "function"
    },
    {
      "inputs": [
        {
          "internalType": "uint256",
          "name": "start",
          "type": "uint256"
        },
        {
          "internalType": "uint256",
          "name": "end",
          "type": "uint256"
        }
      ],
      "name": "getUserAddressesInRange",
      "outputs": [
        {
          "internalType": "address[]",
          "name": "",
          "type": "address[]"
        }
      ],
      "stateMutability": "view",
      "type": "function"
    },
    {
      "inputs": [],
      "name": "getUserCount",
      "outputs": [
        {
          "internalType": "uint256",
          "name": "",
          "type": "uint256"
        }
      ],
      "stateMutability": "view",
      "type": "function"
    },
    {
      "inputs": [
        {
          "internalType": "string",
          "name": "secret",
          "type": "string"
        }
      ],
      "name": "updateUser",
      "outputs": [],
      "stateMutability": "nonpayable",
      "type": "function"
    }
  ],
  "bytecode": "0x608060405234801561001057600080fd5b50610b60806100206000396000f3fe608060405234801561001057600080fd5b506004361061004c5760003560e01c80630b4f12f6146100515780636f77926b1461006d578063b5cb15f71461009d578063f1f2c6ac146100bb575b600080fd5b61006b6004803603810190610066919061069a565b6100eb565b005b61008760048036038101906100829190610741565b61027b565b60405161009491906107f6565b60405180910390f35b6100a561034b565b6040516100b29190610831565b60405180910390f35b6100d560048036038101906100d09190610878565b610358565b6040516100e29190610976565b60405180910390f35b60008060003373ffffffffffffffffffffffffffffffffffffffff1673ffffffffffffffffffffffffffffffffffffffff1681526020019081526020016000208054610136906109c7565b80601f0160208091040260200160405190810160405280929190818152602001828054610162906109c7565b80156101af5780601f10610184576101008083540402835291602001916101af565b820191906000526020600020905b81548152906001019060200180831161019257829003601f168201915b50505050509050600081511415610224576001339080600181540180825580915050600190039060005260206000200160009091909190916101000a81548173ffffffffffffffffffffffffffffffffffffffff021916908373ffffffffffffffffffffffffffffffffffffffff1602179055505b816000803373ffffffffffffffffffffffffffffffffffffffff1673ffffffffffffffffffffffffffffffffffffffff168152602001908152602001600020908051906020019061027692919061049d565b505050565b60606000808373ffffffffffffffffffffffffffffffffffffffff1673ffffffffffffffffffffffffffffffffffffffff16815260200190815260200160002080546102c6906109c7565b80601f01602080910402602001604051908101604052809291908181526020018280546102f2906109c7565b801561033f5780601f106103145761010080835404028352916020019161033f565b820191906000526020600020905b81548152906001019060200180831161032257829003601f168201915b50505050509050919050565b6000600180549050905090565b606060008290506001805490508111156103755760018054905090505b600084826103839190610a28565b905060008167ffffffffffffffff8111156103a1576103a061056f565b5b6040519080825280602002602001820160405280156103cf5781602001602082028036833780820191505090505b5090506000808790505b8382101561048f57600181815481106103f5576103f4610a5c565b5b9060005260206000200160009054906101000a900473ffffffffffffffffffffffffffffffffffffffff1683838151811061043357610432610a5c565b5b602002602001019073ffffffffffffffffffffffffffffffffffffffff16908173ffffffffffffffffffffffffffffffffffffffff168152505060018261047a9190610a8b565b9150808061048790610ae1565b9150506103d9565b508194505050505092915050565b8280546104a9906109c7565b90600052602060002090601f0160209004810192826104cb5760008555610512565b82601f106104e457805160ff1916838001178555610512565b82800160010185558215610512579182015b828111156105115782518255916020019190600101906104f6565b5b50905061051f9190610523565b5090565b5b8082111561053c576000816000905550600101610524565b5090565b6000604051905090565b600080fd5b600080fd5b600080fd5b600080fd5b6000601f19601f8301169050919050565b7f4e487b7100000000000000000000000000000000000000000000000000000000600052604160045260246000fd5b6105a78261055e565b810181811067ffffffffffffffff821117156105c6576105c561056f565b5b80604052505050565b60006105d9610540565b90506105e5828261059e565b919050565b600067ffffffffffffffff8211156106055761060461056f565b5b61060e8261055e565b9050602081019050919050565b82818337600083830152505050565b600061063d610638846105ea565b6105cf565b90508281526020810184848401111561065957610658610559565b5b61066484828561061b565b509392505050565b600082601f83011261068157610680610554565b5b813561069184826020860161062a565b91505092915050565b6000602082840312156106b0576106af61054a565b5b600082013567ffffffffffffffff8111156106ce576106cd61054f565b5b6106da8482850161066c565b91505092915050565b600073ffffffffffffffffffffffffffffffffffffffff82169050919050565b600061070e826106e3565b9050919050565b61071e81610703565b811461072957600080fd5b50565b60008135905061073b81610715565b92915050565b6000602082840312156107575761075661054a565b5b60006107658482850161072c565b91505092915050565b600081519050919050565b600082825260208201905092915050565b60005b838110156107a857808201518184015260208101905061078d565b838111156107b7576000848401525b50505050565b60006107c88261076e565b6107d28185610779565b93506107e281856020860161078a565b6107eb8161055e565b840191505092915050565b6000602082019050818103600083015261081081846107bd565b905092915050565b6000819050919050565b61082b81610818565b82525050565b60006020820190506108466000830184610822565b92915050565b61085581610818565b811461086057600080fd5b50565b6000813590506108728161084c565b92915050565b6000806040838503121561088f5761088e61054a565b5b600061089d85828601610863565b92505060206108ae85828601610863565b9150509250929050565b600081519050919050565b600082825260208201905092915050565b6000819050602082019050919050565b6108ed81610703565b82525050565b60006108ff83836108e4565b60208301905092915050565b6000602082019050919050565b6000610923826108b8565b61092d81856108c3565b9350610938836108d4565b8060005b8381101561096957815161095088826108f3565b975061095b8361090b565b92505060018101905061093c565b5085935050505092915050565b600060208201905081810360008301526109908184610918565b905092915050565b7f4e487b7100000000000000000000000000000000000000000000000000000000600052602260045260246000fd5b600060028204905060018216806109df57607f821691505b602082108114156109f3576109f2610998565b5b50919050565b7f4e487b7100000000000000000000000000000000000000000000000000000000600052601160045260246000fd5b6000610a3382610818565b9150610a3e83610818565b925082821015610a5157610a506109f9565b5b828203905092915050565b7f4e487b7100000000000000000000000000000000000000000000000000000000600052603260045260246000fd5b6000610a9682610818565b9150610aa183610818565b9250827fffffffffffffffffffffffffffffffffffffffffffffffffffffffffffffffff03821115610ad657610ad56109f9565b5b828201905092915050565b6000610aec82610818565b91507fffffffffffffffffffffffffffffffffffffffffffffffffffffffffffffffff821415610b1f57610b1e6109f9565b5b60018201905091905056fea2646970667358221220c2808a1489ec686c6320587f69f1a469a8411f030d5077ed9c253e2aa7539af064736f6c63430008090033",
  "linkReferences": {},
  "deployedLinkReferences": {}
}